{
  "contractName": "Hero",
  "abi": [
    {
      "inputs": [],
      "stateMutability": "nonpayable",
      "type": "constructor"
    },
    {
      "anonymous": false,
      "inputs": [
        {
          "indexed": true,
          "internalType": "address",
          "name": "owner",
          "type": "address"
        },
        {
          "indexed": true,
          "internalType": "address",
          "name": "approved",
          "type": "address"
        },
        {
          "indexed": true,
          "internalType": "uint256",
          "name": "tokenId",
          "type": "uint256"
        }
      ],
      "name": "Approval",
      "type": "event"
    },
    {
      "anonymous": false,
      "inputs": [
        {
          "indexed": true,
          "internalType": "address",
          "name": "owner",
          "type": "address"
        },
        {
          "indexed": true,
          "internalType": "address",
          "name": "operator",
          "type": "address"
        },
        {
          "indexed": false,
          "internalType": "bool",
          "name": "approved",
          "type": "bool"
        }
      ],
      "name": "ApprovalForAll",
      "type": "event"
    },
    {
      "anonymous": false,
      "inputs": [
        {
          "indexed": true,
          "internalType": "address",
          "name": "from",
          "type": "address"
        },
        {
          "indexed": true,
          "internalType": "address",
          "name": "to",
          "type": "address"
        },
        {
          "indexed": true,
          "internalType": "uint256",
          "name": "tokenId",
          "type": "uint256"
        }
      ],
      "name": "Transfer",
      "type": "event"
    },
    {
      "inputs": [
        {
          "internalType": "address",
          "name": "to",
          "type": "address"
        },
        {
          "internalType": "uint256",
          "name": "tokenId",
          "type": "uint256"
        }
      ],
      "name": "approve",
      "outputs": [],
      "stateMutability": "nonpayable",
      "type": "function"
    },
    {
      "inputs": [
        {
          "internalType": "address",
          "name": "owner",
          "type": "address"
        }
      ],
      "name": "balanceOf",
      "outputs": [
        {
          "internalType": "uint256",
          "name": "",
          "type": "uint256"
        }
      ],
      "stateMutability": "view",
      "type": "function",
      "constant": true
    },
    {
      "inputs": [
        {
          "internalType": "uint256",
          "name": "tokenId",
          "type": "uint256"
        }
      ],
      "name": "getApproved",
      "outputs": [
        {
          "internalType": "address",
          "name": "",
          "type": "address"
        }
      ],
      "stateMutability": "view",
      "type": "function",
      "constant": true
    },
    {
      "inputs": [
        {
          "internalType": "uint256",
          "name": "",
          "type": "uint256"
        }
      ],
      "name": "heroes",
      "outputs": [
        {
          "internalType": "uint256",
          "name": "level",
          "type": "uint256"
        },
        {
          "internalType": "bool",
          "name": "isOnSale",
          "type": "bool"
        },
        {
          "internalType": "uint256",
          "name": "exp",
          "type": "uint256"
        },
        {
          "internalType": "uint256",
          "name": "id",
          "type": "uint256"
        },
        {
          "internalType": "uint256",
          "name": "rarity",
          "type": "uint256"
        },
        {
          "internalType": "uint16",
          "name": "strength",
          "type": "uint16"
        },
        {
          "internalType": "uint16",
          "name": "luck",
          "type": "uint16"
        },
        {
          "internalType": "uint16",
          "name": "defense",
          "type": "uint16"
        },
        {
          "internalType": "uint16",
          "name": "health",
          "type": "uint16"
        },
        {
          "internalType": "uint256",
          "name": "price",
          "type": "uint256"
        }
      ],
      "stateMutability": "view",
      "type": "function",
      "constant": true
    },
    {
      "inputs": [
        {
          "internalType": "address",
          "name": "owner",
          "type": "address"
        },
        {
          "internalType": "address",
          "name": "operator",
          "type": "address"
        }
      ],
      "name": "isApprovedForAll",
      "outputs": [
        {
          "internalType": "bool",
          "name": "",
          "type": "bool"
        }
      ],
      "stateMutability": "view",
      "type": "function",
      "constant": true
    },
    {
      "inputs": [],
      "name": "name",
      "outputs": [
        {
          "internalType": "string",
          "name": "",
          "type": "string"
        }
      ],
      "stateMutability": "view",
      "type": "function",
      "constant": true
    },
    {
      "inputs": [
        {
          "internalType": "uint256",
          "name": "",
          "type": "uint256"
        }
      ],
      "name": "ownerByHero",
      "outputs": [
        {
          "internalType": "address",
          "name": "",
          "type": "address"
        }
      ],
      "stateMutability": "view",
      "type": "function",
      "constant": true
    },
    {
      "inputs": [
        {
          "internalType": "uint256",
          "name": "tokenId",
          "type": "uint256"
        }
      ],
      "name": "ownerOf",
      "outputs": [
        {
          "internalType": "address",
          "name": "",
          "type": "address"
        }
      ],
      "stateMutability": "view",
      "type": "function",
      "constant": true
    },
    {
      "inputs": [
        {
          "internalType": "address",
          "name": "from",
          "type": "address"
        },
        {
          "internalType": "address",
          "name": "to",
          "type": "address"
        },
        {
          "internalType": "uint256",
          "name": "tokenId",
          "type": "uint256"
        }
      ],
      "name": "safeTransferFrom",
      "outputs": [],
      "stateMutability": "nonpayable",
      "type": "function"
    },
    {
      "inputs": [
        {
          "internalType": "address",
          "name": "from",
          "type": "address"
        },
        {
          "internalType": "address",
          "name": "to",
          "type": "address"
        },
        {
          "internalType": "uint256",
          "name": "tokenId",
          "type": "uint256"
        },
        {
          "internalType": "bytes",
          "name": "_data",
          "type": "bytes"
        }
      ],
      "name": "safeTransferFrom",
      "outputs": [],
      "stateMutability": "nonpayable",
      "type": "function"
    },
    {
      "inputs": [
        {
          "internalType": "address",
          "name": "operator",
          "type": "address"
        },
        {
          "internalType": "bool",
          "name": "approved",
          "type": "bool"
        }
      ],
      "name": "setApprovalForAll",
      "outputs": [],
      "stateMutability": "nonpayable",
      "type": "function"
    },
    {
      "inputs": [
        {
          "internalType": "bytes4",
          "name": "interfaceId",
          "type": "bytes4"
        }
      ],
      "name": "supportsInterface",
      "outputs": [
        {
          "internalType": "bool",
          "name": "",
          "type": "bool"
        }
      ],
      "stateMutability": "view",
      "type": "function",
      "constant": true
    },
    {
      "inputs": [],
      "name": "symbol",
      "outputs": [
        {
          "internalType": "string",
          "name": "",
          "type": "string"
        }
      ],
      "stateMutability": "view",
      "type": "function",
      "constant": true
    },
    {
      "inputs": [
        {
          "internalType": "uint256",
          "name": "tokenId",
          "type": "uint256"
        }
      ],
      "name": "tokenURI",
      "outputs": [
        {
          "internalType": "string",
          "name": "",
          "type": "string"
        }
      ],
      "stateMutability": "view",
      "type": "function",
      "constant": true
    },
    {
      "inputs": [
        {
          "internalType": "address",
          "name": "from",
          "type": "address"
        },
        {
          "internalType": "address",
          "name": "to",
          "type": "address"
        },
        {
          "internalType": "uint256",
          "name": "tokenId",
          "type": "uint256"
        }
      ],
      "name": "transferFrom",
      "outputs": [],
      "stateMutability": "nonpayable",
      "type": "function"
    },
    {
      "inputs": [],
      "name": "getHeroes",
      "outputs": [
        {
          "components": [
            {
              "internalType": "uint256",
              "name": "level",
              "type": "uint256"
            },
            {
              "internalType": "bool",
              "name": "isOnSale",
              "type": "bool"
            },
            {
              "internalType": "uint256",
              "name": "exp",
              "type": "uint256"
            },
            {
              "internalType": "uint256",
              "name": "id",
              "type": "uint256"
            },
            {
              "internalType": "uint256",
              "name": "rarity",
              "type": "uint256"
            },
            {
              "internalType": "uint16",
              "name": "strength",
              "type": "uint16"
            },
            {
              "internalType": "uint16",
              "name": "luck",
              "type": "uint16"
            },
            {
              "internalType": "uint16",
              "name": "defense",
              "type": "uint16"
            },
            {
              "internalType": "uint16",
              "name": "health",
              "type": "uint16"
            },
            {
              "internalType": "uint256",
              "name": "price",
              "type": "uint256"
            }
          ],
          "internalType": "struct Hero.Hero[]",
          "name": "",
          "type": "tuple[]"
        }
      ],
      "stateMutability": "view",
      "type": "function",
      "constant": true
    },
    {
      "inputs": [
        {
          "internalType": "address",
          "name": "from",
          "type": "address"
        },
        {
          "internalType": "address",
          "name": "to",
          "type": "address"
        },
        {
          "internalType": "uint256",
          "name": "tokenId",
          "type": "uint256"
        },
        {
          "internalType": "bytes",
          "name": "_data",
          "type": "bytes"
        }
      ],
      "name": "buyHero",
      "outputs": [],
      "stateMutability": "nonpayable",
      "type": "function"
    },
    {
      "inputs": [
        {
          "internalType": "uint256",
          "name": "id",
          "type": "uint256"
        }
      ],
      "name": "sellHero",
      "outputs": [],
      "stateMutability": "nonpayable",
      "type": "function"
    },
    {
      "inputs": [],
      "name": "getOwnedHeroes",
      "outputs": [
        {
          "components": [
            {
              "internalType": "uint256",
              "name": "level",
              "type": "uint256"
            },
            {
              "internalType": "bool",
              "name": "isOnSale",
              "type": "bool"
            },
            {
              "internalType": "uint256",
              "name": "exp",
              "type": "uint256"
            },
            {
              "internalType": "uint256",
              "name": "id",
              "type": "uint256"
            },
            {
              "internalType": "uint256",
              "name": "rarity",
              "type": "uint256"
            },
            {
              "internalType": "uint16",
              "name": "strength",
              "type": "uint16"
            },
            {
              "internalType": "uint16",
              "name": "luck",
              "type": "uint16"
            },
            {
              "internalType": "uint16",
              "name": "defense",
              "type": "uint16"
            },
            {
              "internalType": "uint16",
              "name": "health",
              "type": "uint16"
            },
            {
              "internalType": "uint256",
              "name": "price",
              "type": "uint256"
            }
          ],
          "internalType": "struct Hero.Hero[]",
          "name": "",
          "type": "tuple[]"
        }
      ],
      "stateMutability": "view",
      "type": "function",
      "constant": true
    },
    {
      "inputs": [
        {
          "internalType": "uint256",
          "name": "heroIndex",
          "type": "uint256"
        }
      ],
      "name": "levelUp",
      "outputs": [],
      "stateMutability": "nonpayable",
      "type": "function"
    },
    {
      "inputs": [
        {
          "internalType": "uint256",
          "name": "ownHero",
          "type": "uint256"
        },
        {
          "internalType": "uint256",
          "name": "enemy",
          "type": "uint256"
        }
      ],
      "name": "battleResult",
      "outputs": [],
      "stateMutability": "nonpayable",
      "type": "function"
    },
    {
      "inputs": [],
      "name": "mintFromParents",
      "outputs": [],
      "stateMutability": "nonpayable",
      "type": "function"
    }
  ],
  "bytecode": "0x60806040523480156200001157600080fd5b50604080518082018252600c81526b5363726962626c654865726f60a01b6020808301918252835180850190945260038452620a684960eb1b908401528151919291620000619160009162000893565b5080516200007790600190602084019062000893565b505050604051620000889062000922565b604051809103906000f080158015620000a5573d6000803e3d6000fd5b50600b80546001600160a01b03929092166001600160a01b03199283161790556008805490911633179055620000da620000ea565b620000e4620000ea565b62000bb8565b6200010160076200037460201b620013561760201c565b60006200011a60076200037d60201b6200135f1760201c565b604080516101408101825260018082526000602083018181529383018181526060840186815260808501848152600660a08701818152600560c08901908152600860e08a019081526101008a0193845260646101208b0190815260098054808c018255818b529b517f6e1540171b6c0c960b71a7020d9f60077f6af931a8bbf590da0223dacf75c7af6007909d029c8d01559b517f6e1540171b6c0c960b71a7020d9f60077f6af931a8bbf590da0223dacf75c7b08c01805460ff191691151591909117905596517f6e1540171b6c0c960b71a7020d9f60077f6af931a8bbf590da0223dacf75c7b18b015594517f6e1540171b6c0c960b71a7020d9f60077f6af931a8bbf590da0223dacf75c7b28a015592517f6e1540171b6c0c960b71a7020d9f60077f6af931a8bbf590da0223dacf75c7b3890155517f6e1540171b6c0c960b71a7020d9f60077f6af931a8bbf590da0223dacf75c7b48801805493519451925161ffff92831663ffffffff199095169490941762010000958316959095029490941763ffffffff60201b19166401000000009282169290920261ffff60301b19169190911766010000000000009190921602179055517f6e1540171b6c0c960b71a7020d9f60077f6af931a8bbf590da0223dacf75c7b59093019290925591549293508392600e9262000311916200095d565b81526020810191909152604001600020556200032e338262000381565b62000371816200034983620003a760201b620013631760201c565b6040516020016200035b9190620009aa565b60408051601f19818403018152919052620004c7565b50565b80546001019055565b5490565b620003a38282604051806020016040528060008152506200056e60201b60201c565b5050565b606081600003620003cf5750506040805180820190915260018152600360fc1b602082015290565b8160005b8115620003ff5780620003e68162000a4c565b9150620003f79050600a8362000a7e565b9150620003d3565b6000816001600160401b038111156200041c576200041c62000a95565b6040519080825280601f01601f19166020018201604052801562000447576020820181803683370190505b5090505b8415620004bf576200045f6001836200095d565b91506200046e600a8662000aab565b6200047b90603062000ac2565b60f81b81838151811062000493576200049362000add565b60200101906001600160f81b031916908160001a905350620004b7600a8662000a7e565b94506200044b565b949350505050565b6000828152600260205260409020546001600160a01b0316620005485760405162461bcd60e51b815260206004820152602e60248201527f45524337323155524953746f726167653a2055524920736574206f66206e6f6e60448201526d32bc34b9ba32b73a103a37b5b2b760911b60648201526084015b60405180910390fd5b60008281526006602090815260409091208251620005699284019062000893565b505050565b6200057a8383620005e1565b62000589600084848462000729565b620005695760405162461bcd60e51b8152602060048201526032602482015260008051602062003bbc83398151915260448201527131b2b4bb32b91034b6b83632b6b2b73a32b960711b60648201526084016200053f565b6001600160a01b038216620006395760405162461bcd60e51b815260206004820181905260248201527f4552433732313a206d696e7420746f20746865207a65726f206164647265737360448201526064016200053f565b6000818152600260205260409020546001600160a01b031615620006a05760405162461bcd60e51b815260206004820152601c60248201527f4552433732313a20746f6b656e20616c7265616479206d696e7465640000000060448201526064016200053f565b6001600160a01b0382166000908152600360205260408120805460019290620006cb90849062000ac2565b909155505060008181526002602052604080822080546001600160a01b0319166001600160a01b03861690811790915590518392907fddf252ad1be2c89b69c2b068fc378daa952ba7f163c4a11628f55a4df523b3ef908290a45050565b60006200074a846001600160a01b03166200088460201b620014641760201c565b156200087957604051630a85bd0160e11b81526001600160a01b0385169063150b7a02906200078490339089908890889060040162000af3565b6020604051808303816000875af1925050508015620007c2575060408051601f3d908101601f19168201909252620007bf9181019062000b49565b60015b6200085e573d808015620007f3576040519150601f19603f3d011682016040523d82523d6000602084013e620007f8565b606091505b508051600003620008565760405162461bcd60e51b8152602060048201526032602482015260008051602062003bbc83398151915260448201527131b2b4bb32b91034b6b83632b6b2b73a32b960711b60648201526084016200053f565b805181602001fd5b6001600160e01b031916630a85bd0160e11b149050620004bf565b506001949350505050565b6001600160a01b03163b151590565b828054620008a19062000b7c565b90600052602060002090601f016020900481019282620008c5576000855562000910565b82601f10620008e057805160ff191683800117855562000910565b8280016001018555821562000910579182015b8281111562000910578251825591602001919060010190620008f3565b506200091e92915062000930565b5090565b610c408062002f7c83390190565b5b808211156200091e576000815560010162000931565b634e487b7160e01b600052601160045260246000fd5b60008282101562000972576200097262000947565b500390565b60005b83811015620009945781810151838201526020016200097a565b83811115620009a4576000848401525b50505050565b7f68747470733a2f2f676174657761792e70696e6174612e636c6f75642f69706681527f732f516d5465646d5548706b6566584566727353623863777451734d6346627960208201527f4450696b474632454264724e453953362f7363726962626c652d00000000000060408201526000825162000a3081605a85016020870162000977565b64173539b7b760d91b605a939091019283015250605f01919050565b60006001820162000a615762000a6162000947565b5060010190565b634e487b7160e01b600052601260045260246000fd5b60008262000a905762000a9062000a68565b500490565b634e487b7160e01b600052604160045260246000fd5b60008262000abd5762000abd62000a68565b500690565b6000821982111562000ad85762000ad862000947565b500190565b634e487b7160e01b600052603260045260246000fd5b600060018060a01b03808716835280861660208401525083604083015260806060830152825180608084015262000b328160a085016020870162000977565b601f01601f19169190910160a00195945050505050565b60006020828403121562000b5c57600080fd5b81516001600160e01b03198116811462000b7557600080fd5b9392505050565b600181811c9082168062000b9157607f821691505b60208210810362000bb257634e487b7160e01b600052602260045260246000fd5b50919050565b6123b48062000bc86000396000f3fe608060405234801561001057600080fd5b50600436106101425760003560e01c806370a08231116100b8578063a22cb4651161007c578063a22cb465146102b8578063a8d4a03b146102cb578063b88d4fde14610335578063c87b56dd14610348578063e985e9c51461035b578063ff8a916b1461039757600080fd5b806370a082311461024b578063888ace061461026c5780638ce965291461027f57806395d89b41146102a85780639a8d2882146102b057600080fd5b806316329dd21161010a57806316329dd2146101d7578063174e65f8146101ec57806323b872dd146101ff57806342842e0e146102125780636352211e14610225578063677a0d721461023857600080fd5b806301ffc9a71461014757806306fdde031461016f578063081812fc14610184578063095ea7b3146101af5780630ce90ec2146101c4575b600080fd5b61015a610155366004611d14565b61039f565b60405190151581526020015b60405180910390f35b6101776103f1565b6040516101669190611d89565b610197610192366004611d9c565b610483565b6040516001600160a01b039091168152602001610166565b6101c26101bd366004611dd1565b610510565b005b6101c26101d2366004611d9c565b610625565b6101df61080a565b6040516101669190611dfb565b6101c26101fa366004611ec6565b610970565b6101c261020d366004611fa2565b6109fa565b6101c2610220366004611fa2565b610a2b565b610197610233366004611d9c565b610a46565b6101c2610246366004611fde565b610abd565b61025e610259366004612000565b610d0d565b604051908152602001610166565b6101c261027a366004611d9c565b610d94565b61019761028d366004611d9c565b600d602052600090815260409020546001600160a01b031681565b610177610de1565b6101df610df0565b6101c26102c636600461201b565b610ec6565b6102de6102d9366004611d9c565b610ed5565b604080519a8b5298151560208b0152978901969096526060880194909452608087019290925261ffff90811660a087015290811660c086015290811660e08501521661010083015261012082015261014001610166565b6101c2610343366004611ec6565b610f4b565b610177610356366004611d9c565b610f83565b61015a610369366004612057565b6001600160a01b03918216600090815260056020908152604080832093909416825291909152205460ff1690565b6101c26110f9565b60006001600160e01b031982166380ac58cd60e01b14806103d057506001600160e01b03198216635b5e139f60e01b145b806103eb57506301ffc9a760e01b6001600160e01b03198316145b92915050565b6060600080546104009061208a565b80601f016020809104026020016040519081016040528092919081815260200182805461042c9061208a565b80156104795780601f1061044e57610100808354040283529160200191610479565b820191906000526020600020905b81548152906001019060200180831161045c57829003601f168201915b5050505050905090565b600061048e82611473565b6104f45760405162461bcd60e51b815260206004820152602c60248201527f4552433732313a20617070726f76656420717565727920666f72206e6f6e657860448201526b34b9ba32b73a103a37b5b2b760a11b60648201526084015b60405180910390fd5b506000908152600460205260409020546001600160a01b031690565b600061051b82610a46565b9050806001600160a01b0316836001600160a01b0316036105885760405162461bcd60e51b815260206004820152602160248201527f4552433732313a20617070726f76616c20746f2063757272656e74206f776e656044820152603960f91b60648201526084016104eb565b336001600160a01b03821614806105a457506105a48133610369565b6106165760405162461bcd60e51b815260206004820152603860248201527f4552433732313a20617070726f76652063616c6c6572206973206e6f74206f7760448201527f6e6572206e6f7220617070726f76656420666f7220616c6c000000000000000060648201526084016104eb565b6106208383611490565b505050565b60006009828154811061063a5761063a6120c4565b6000918252602091829020604080516101408101825260079093029091018054808452600182015460ff16151594840194909452600281015491830191909152600381015460608301526004810154608083015260058082015461ffff80821660a0860152620100008204811660c0860152600160201b8204811660e0860152600160301b909104166101008401526006909101546101208301529092506106e291906120f0565b816040015110156106f257600080fd5b80516106ff9060056120f0565b81604001818151610710919061210f565b90525080516001908290610725908390612126565b905250600980548291908490811061073f5761073f6120c4565b600091825260209182902083516007909202019081559082015160018201805491151560ff1990921691909117905560408201516002820155606082015160038201556080820151600482015560a082015160058201805460c085015160e086015161010087015161ffff908116600160301b0267ffff00000000000019928216600160201b029290921667ffffffff0000000019938216620100000263ffffffff199095169190961617929092171692909217919091179055610120909101516006909101555050565b336000908152600c6020908152604080832080548251818502810185019093528083526060949383018282801561086057602002820191906000526020600020905b81548152602001906001019080831161084c575b50505050509050606060005b8251811015610969576009838281518110610889576108896120c4565b6020026020010151815481106108a1576108a16120c4565b60009182526020918290206040805161014081018252600790930290910180548352600181015460ff161515938301939093526002830154908201526003820154606082015260048201546080820152600582015461ffff80821660a0840152620100008204811660c0840152600160201b8204811660e0840152600160301b90910416610100820152600690910154610120820152825183908390811061094b5761094b6120c4565b602002602001018190525080806109619061213e565b91505061086c565b5092915050565b600061097b83610a46565b6008549091506001600160a01b039081169082160361099e5761099e8484611490565b6109aa858585856114fe565b6000838152600e602052604081205460098054919291839081106109d0576109d06120c4565b60009182526020909120600790910201600101805460ff1916911515919091179055505050505050565b610a043382611531565b610a205760405162461bcd60e51b81526004016104eb90612157565b610620838383611617565b61062083838360405180602001604052806000815250610f4b565b6000818152600260205260408120546001600160a01b0316806103eb5760405162461bcd60e51b815260206004820152602960248201527f4552433732313a206f776e657220717565727920666f72206e6f6e657869737460448201526832b73a103a37b5b2b760b91b60648201526084016104eb565b6000828152600e60205260408082205483835290822054600980549293919284908110610aec57610aec6120c4565b600091825260208083206040805161014081018252600790940290910180548452600181015460ff161515928401929092526002820154908301526003810154606083015260048101546080830152600581015461ffff80821660a0850152620100008204811660c0850152600160201b8204811660e0850152600160301b9091041661010083015260060154610120820152600980549193509084908110610b9757610b976120c4565b600091825260208083206040805161014081018252600790940290910180548452600181015460ff161515928401929092526002820154908301526003810154606083015260048101546080830152600581015461ffff80821660a080860191909152620100008304821660c080870191909152600160201b8404831660e080880191909152600160301b90940490921661010086015260069093015461012085015286015191860151908601519294509091610c5491906121a8565b610c5e91906121a8565b61ffff16905060008260c001518360a001518460e00151610c7f91906121a8565b610c8991906121a8565b61ffff16905080821115610d0357600b5460405163a2b843f160e01b8152606460048201819052336024830152600160448301526001600160a01b039092169163a2b843f19101600060405180830381600087803b158015610cea57600080fd5b505af1158015610cfe573d6000803e3d6000fd5b505050505b5050505050505050565b60006001600160a01b038216610d785760405162461bcd60e51b815260206004820152602a60248201527f4552433732313a2062616c616e636520717565727920666f7220746865207a65604482015269726f206164647265737360b01b60648201526084016104eb565b506001600160a01b031660009081526003602052604090205490565b6000818152600e6020526040902054600980546001919083908110610dbb57610dbb6120c4565b60009182526020909120600790910201600101805460ff19169115159190911790555050565b6060600180546104009061208a565b60606009805480602002602001604051908101604052809291908181526020016000905b82821015610ebd5760008481526020908190206040805161014081018252600786029092018054835260018082015460ff161515848601526002820154928401929092526003810154606084015260048101546080840152600581015461ffff80821660a0860152620100008204811660c0860152600160201b8204811660e0860152600160301b90910416610100840152600601546101208301529083529092019101610e14565b50505050905090565b610ed13383836117b3565b5050565b60098181548110610ee557600080fd5b6000918252602090912060079091020180546001820154600283015460038401546004850154600586015460069096015494965060ff90931694919390929161ffff80821692620100008304821692600160201b8104831692600160301b90910416908a565b610f553383611531565b610f715760405162461bcd60e51b81526004016104eb90612157565b610f7d848484846114fe565b50505050565b6060610f8e82611473565b610ff45760405162461bcd60e51b815260206004820152603160248201527f45524337323155524953746f726167653a2055524920717565727920666f72206044820152703737b732bc34b9ba32b73a103a37b5b2b760791b60648201526084016104eb565b6000828152600660205260408120805461100d9061208a565b80601f01602080910402602001604051908101604052809291908181526020018280546110399061208a565b80156110865780601f1061105b57610100808354040283529160200191611086565b820191906000526020600020905b81548152906001019060200180831161106957829003601f168201915b5050505050905060006110a460408051602081019091526000815290565b905080516000036110b6575092915050565b8151156110e85780826040516020016110d09291906121ce565b60405160208183030381529060405292505050919050565b6110f184611881565b949350505050565b611107600780546001019055565b600061111260075490565b604080516101408101825260018082526000602083018181529383018181526060840186815260808501848152600660a08701818152600560c08901908152600860e08a019081526101008a0193845260646101208b0190815260098054808c018255818b529b517f6e1540171b6c0c960b71a7020d9f60077f6af931a8bbf590da0223dacf75c7af6007909d029c8d01559b517f6e1540171b6c0c960b71a7020d9f60077f6af931a8bbf590da0223dacf75c7b08c01805460ff191691151591909117905596517f6e1540171b6c0c960b71a7020d9f60077f6af931a8bbf590da0223dacf75c7b18b015594517f6e1540171b6c0c960b71a7020d9f60077f6af931a8bbf590da0223dacf75c7b28a015592517f6e1540171b6c0c960b71a7020d9f60077f6af931a8bbf590da0223dacf75c7b3890155517f6e1540171b6c0c960b71a7020d9f60077f6af931a8bbf590da0223dacf75c7b48801805493519451925161ffff92831663ffffffff199095169490941762010000958316959095029490941767ffffffff000000001916600160201b9282169290920267ffff000000000000191691909117600160301b9190921602179055517f6e1540171b6c0c960b71a7020d9f60077f6af931a8bbf590da0223dacf75c7b59093019290925591549293508392600e926113079161210f565b81526020810191909152604001600020556113223382611959565b6113538161132f83611363565b60405160200161133f91906121f4565b604051602081830303815290604052611973565b50565b80546001019055565b5490565b60608160000361138a5750506040805180820190915260018152600360fc1b602082015290565b8160005b81156113b4578061139e8161213e565b91506113ad9050600a836122aa565b915061138e565b60008167ffffffffffffffff8111156113cf576113cf611eb0565b6040519080825280601f01601f1916602001820160405280156113f9576020820181803683370190505b5090505b84156110f15761140e60018361210f565b915061141b600a866122be565b611426906030612126565b60f81b81838151811061143b5761143b6120c4565b60200101906001600160f81b031916908160001a90535061145d600a866122aa565b94506113fd565b6001600160a01b03163b151590565b6000908152600260205260409020546001600160a01b0316151590565b600081815260046020526040902080546001600160a01b0319166001600160a01b03841690811790915581906114c582610a46565b6001600160a01b03167f8c5be1e5ebec7d5bd14f71427d1e84f3dd0314c0f7b2291e5b200ac8c7c3b92560405160405180910390a45050565b611509848484611617565b611515848484846119fe565b610f7d5760405162461bcd60e51b81526004016104eb906122d2565b600061153c82611473565b61159d5760405162461bcd60e51b815260206004820152602c60248201527f4552433732313a206f70657261746f7220717565727920666f72206e6f6e657860448201526b34b9ba32b73a103a37b5b2b760a11b60648201526084016104eb565b60006115a883610a46565b9050806001600160a01b0316846001600160a01b031614806115e35750836001600160a01b03166115d884610483565b6001600160a01b0316145b806110f157506001600160a01b0380821660009081526005602090815260408083209388168352929052205460ff166110f1565b826001600160a01b031661162a82610a46565b6001600160a01b03161461168e5760405162461bcd60e51b815260206004820152602560248201527f4552433732313a207472616e736665722066726f6d20696e636f72726563742060448201526437bbb732b960d91b60648201526084016104eb565b6001600160a01b0382166116f05760405162461bcd60e51b8152602060048201526024808201527f4552433732313a207472616e7366657220746f20746865207a65726f206164646044820152637265737360e01b60648201526084016104eb565b6116fb600082611490565b6001600160a01b038316600090815260036020526040812080546001929061172490849061210f565b90915550506001600160a01b0382166000908152600360205260408120805460019290611752908490612126565b909155505060008181526002602052604080822080546001600160a01b0319166001600160a01b0386811691821790925591518493918716917fddf252ad1be2c89b69c2b068fc378daa952ba7f163c4a11628f55a4df523b3ef91a4505050565b816001600160a01b0316836001600160a01b0316036118145760405162461bcd60e51b815260206004820152601960248201527f4552433732313a20617070726f766520746f2063616c6c65720000000000000060448201526064016104eb565b6001600160a01b03838116600081815260056020908152604080832094871680845294825291829020805460ff191686151590811790915591519182527f17307eab39ab6107e8899845ad3d59bd9653f200f220920489ca2b5937696c31910160405180910390a3505050565b606061188c82611473565b6118f05760405162461bcd60e51b815260206004820152602f60248201527f4552433732314d657461646174613a2055524920717565727920666f72206e6f60448201526e3732bc34b9ba32b73a103a37b5b2b760891b60648201526084016104eb565b600061190760408051602081019091526000815290565b905060008151116119275760405180602001604052806000815250611952565b8061193184611363565b6040516020016119429291906121ce565b6040516020818303038152906040525b9392505050565b610ed1828260405180602001604052806000815250611aff565b61197c82611473565b6119df5760405162461bcd60e51b815260206004820152602e60248201527f45524337323155524953746f726167653a2055524920736574206f66206e6f6e60448201526d32bc34b9ba32b73a103a37b5b2b760911b60648201526084016104eb565b6000828152600660209081526040909120825161062092840190611c65565b60006001600160a01b0384163b15611af457604051630a85bd0160e11b81526001600160a01b0385169063150b7a0290611a42903390899088908890600401612324565b6020604051808303816000875af1925050508015611a7d575060408051601f3d908101601f19168201909252611a7a91810190612361565b60015b611ada573d808015611aab576040519150601f19603f3d011682016040523d82523d6000602084013e611ab0565b606091505b508051600003611ad25760405162461bcd60e51b81526004016104eb906122d2565b805181602001fd5b6001600160e01b031916630a85bd0160e11b1490506110f1565b506001949350505050565b611b098383611b32565b611b1660008484846119fe565b6106205760405162461bcd60e51b81526004016104eb906122d2565b6001600160a01b038216611b885760405162461bcd60e51b815260206004820181905260248201527f4552433732313a206d696e7420746f20746865207a65726f206164647265737360448201526064016104eb565b611b9181611473565b15611bde5760405162461bcd60e51b815260206004820152601c60248201527f4552433732313a20746f6b656e20616c7265616479206d696e7465640000000060448201526064016104eb565b6001600160a01b0382166000908152600360205260408120805460019290611c07908490612126565b909155505060008181526002602052604080822080546001600160a01b0319166001600160a01b03861690811790915590518392907fddf252ad1be2c89b69c2b068fc378daa952ba7f163c4a11628f55a4df523b3ef908290a45050565b828054611c719061208a565b90600052602060002090601f016020900481019282611c935760008555611cd9565b82601f10611cac57805160ff1916838001178555611cd9565b82800160010185558215611cd9579182015b82811115611cd9578251825591602001919060010190611cbe565b50611ce5929150611ce9565b5090565b5b80821115611ce55760008155600101611cea565b6001600160e01b03198116811461135357600080fd5b600060208284031215611d2657600080fd5b813561195281611cfe565b60005b83811015611d4c578181015183820152602001611d34565b83811115610f7d5750506000910152565b60008151808452611d75816020860160208601611d31565b601f01601f19169290920160200192915050565b6020815260006119526020830184611d5d565b600060208284031215611dae57600080fd5b5035919050565b80356001600160a01b0381168114611dcc57600080fd5b919050565b60008060408385031215611de457600080fd5b611ded83611db5565b946020939093013593505050565b602080825282518282018190526000919060409081850190868401855b82811015611ea357815180518552868101511515878601528581015186860152606080820151908601526080808201519086015260a08082015161ffff9081169187019190915260c08083015182169087015260e080830151821690870152610100808301519091169086015261012090810151908501526101409093019290850190600101611e18565b5091979650505050505050565b634e487b7160e01b600052604160045260246000fd5b60008060008060808587031215611edc57600080fd5b611ee585611db5565b9350611ef360208601611db5565b925060408501359150606085013567ffffffffffffffff80821115611f1757600080fd5b818701915087601f830112611f2b57600080fd5b813581811115611f3d57611f3d611eb0565b604051601f8201601f19908116603f01168101908382118183101715611f6557611f65611eb0565b816040528281528a6020848701011115611f7e57600080fd5b82602086016020830137600060208483010152809550505050505092959194509250565b600080600060608486031215611fb757600080fd5b611fc084611db5565b9250611fce60208501611db5565b9150604084013590509250925092565b60008060408385031215611ff157600080fd5b50508035926020909101359150565b60006020828403121561201257600080fd5b61195282611db5565b6000806040838503121561202e57600080fd5b61203783611db5565b91506020830135801515811461204c57600080fd5b809150509250929050565b6000806040838503121561206a57600080fd5b61207383611db5565b915061208160208401611db5565b90509250929050565b600181811c9082168061209e57607f821691505b6020821081036120be57634e487b7160e01b600052602260045260246000fd5b50919050565b634e487b7160e01b600052603260045260246000fd5b634e487b7160e01b600052601160045260246000fd5b600081600019048311821515161561210a5761210a6120da565b500290565b600082821015612121576121216120da565b500390565b60008219821115612139576121396120da565b500190565b600060018201612150576121506120da565b5060010190565b60208082526031908201527f4552433732313a207472616e736665722063616c6c6572206973206e6f74206f6040820152701ddb995c881b9bdc88185c1c1c9bdd9959607a1b606082015260800190565b600061ffff8083168185168083038211156121c5576121c56120da565b01949350505050565b600083516121e0818460208801611d31565b8351908301906121c5818360208801611d31565b7f68747470733a2f2f676174657761792e70696e6174612e636c6f75642f69706681527f732f516d5465646d5548706b6566584566727353623863777451734d6346627960208201527f4450696b474632454264724e453953362f7363726962626c652d00000000000060408201526000825161227881605a850160208701611d31565b64173539b7b760d91b605a939091019283015250605f01919050565b634e487b7160e01b600052601260045260246000fd5b6000826122b9576122b9612294565b500490565b6000826122cd576122cd612294565b500690565b60208082526032908201527f4552433732313a207472616e7366657220746f206e6f6e20455243373231526560408201527131b2b4bb32b91034b6b83632b6b2b73a32b960711b606082015260800190565b6001600160a01b038581168252841660208201526040810183905260806060820181905260009061235790830184611d5d565b9695505050505050565b60006020828403121561237357600080fd5b815161195281611cfe56fea26469706673582212208ecd1b8936b10ce628d8fb37102cad8a41a238ad4b678883c2249fa34c1c585564736f6c634300080d003360806040523480156200001157600080fd5b5060408051808201825260098152682432b937aa37b5b2b760b91b602080830191825283518085019094526002845261121560f21b9084015281519192916200005d9160039162000188565b5080516200007390600490602084019062000188565b5050600580546001600160a01b031916339081179091556200009a9150620186a0620000a0565b62000291565b6001600160a01b038216620000fb5760405162461bcd60e51b815260206004820152601f60248201527f45524332303a206d696e7420746f20746865207a65726f206164647265737300604482015260640160405180910390fd5b80600260008282546200010f91906200022e565b90915550506001600160a01b038216600090815260208190526040812080548392906200013e9084906200022e565b90915550506040518181526001600160a01b038316906000907fddf252ad1be2c89b69c2b068fc378daa952ba7f163c4a11628f55a4df523b3ef9060200160405180910390a35050565b828054620001969062000255565b90600052602060002090601f016020900481019282620001ba576000855562000205565b82601f10620001d557805160ff191683800117855562000205565b8280016001018555821562000205579182015b8281111562000205578251825591602001919060010190620001e8565b506200021392915062000217565b5090565b5b8082111562000213576000815560010162000218565b600082198211156200025057634e487b7160e01b600052601160045260246000fd5b500190565b600181811c908216806200026a57607f821691505b6020821081036200028b57634e487b7160e01b600052602260045260246000fd5b50919050565b61099f80620002a16000396000f3fe608060405234801561001057600080fd5b50600436106100cf5760003560e01c806370a082311161008c578063a2b843f111610066578063a2b843f1146101b8578063a457c2d7146101cd578063a9059cbb146101e0578063dd62ed3e146101f357600080fd5b806370a082311461015c5780638da5cb5b1461018557806395d89b41146101b057600080fd5b806306fdde03146100d4578063095ea7b3146100f257806318160ddd1461011557806323b872dd14610127578063313ce5671461013a5780633950935114610149575b600080fd5b6100dc61022c565b6040516100e99190610798565b60405180910390f35b610105610100366004610809565b6102be565b60405190151581526020016100e9565b6002545b6040519081526020016100e9565b610105610135366004610833565b6102d6565b604051601281526020016100e9565b610105610157366004610809565b6102fa565b61011961016a36600461086f565b6001600160a01b031660009081526020819052604090205490565b600554610198906001600160a01b031681565b6040516001600160a01b0390911681526020016100e9565b6100dc610339565b6101cb6101c6366004610891565b610348565b005b6101056101db366004610809565b610375565b6101056101ee366004610809565b61040c565b6101196102013660046108d6565b6001600160a01b03918216600090815260016020908152604080832093909416825291909152205490565b60606003805461023b90610909565b80601f016020809104026020016040519081016040528092919081815260200182805461026790610909565b80156102b45780601f10610289576101008083540402835291602001916102b4565b820191906000526020600020905b81548152906001019060200180831161029757829003601f168201915b5050505050905090565b6000336102cc81858561041a565b5060019392505050565b6000336102e485828561053e565b6102ef8585856105ca565b506001949350505050565b3360008181526001602090815260408083206001600160a01b03871684529091528120549091906102cc9082908690610334908790610943565b61041a565b60606004805461023b90610909565b8060018115151461035857600080fd5b60055461036f906001600160a01b031684866105ca565b50505050565b3360008181526001602090815260408083206001600160a01b0387168452909152812054909190838110156103ff5760405162461bcd60e51b815260206004820152602560248201527f45524332303a2064656372656173656420616c6c6f77616e63652062656c6f77604482015264207a65726f60d81b60648201526084015b60405180910390fd5b6102ef828686840361041a565b6000336102cc8185856105ca565b6001600160a01b03831661047c5760405162461bcd60e51b8152602060048201526024808201527f45524332303a20617070726f76652066726f6d20746865207a65726f206164646044820152637265737360e01b60648201526084016103f6565b6001600160a01b0382166104dd5760405162461bcd60e51b815260206004820152602260248201527f45524332303a20617070726f766520746f20746865207a65726f206164647265604482015261737360f01b60648201526084016103f6565b6001600160a01b0383811660008181526001602090815260408083209487168084529482529182902085905590518481527f8c5be1e5ebec7d5bd14f71427d1e84f3dd0314c0f7b2291e5b200ac8c7c3b925910160405180910390a3505050565b6001600160a01b03838116600090815260016020908152604080832093861683529290522054600019811461036f57818110156105bd5760405162461bcd60e51b815260206004820152601d60248201527f45524332303a20696e73756666696369656e7420616c6c6f77616e636500000060448201526064016103f6565b61036f848484840361041a565b6001600160a01b03831661062e5760405162461bcd60e51b815260206004820152602560248201527f45524332303a207472616e736665722066726f6d20746865207a65726f206164604482015264647265737360d81b60648201526084016103f6565b6001600160a01b0382166106905760405162461bcd60e51b815260206004820152602360248201527f45524332303a207472616e7366657220746f20746865207a65726f206164647260448201526265737360e81b60648201526084016103f6565b6001600160a01b038316600090815260208190526040902054818110156107085760405162461bcd60e51b815260206004820152602660248201527f45524332303a207472616e7366657220616d6f756e7420657863656564732062604482015265616c616e636560d01b60648201526084016103f6565b6001600160a01b0380851660009081526020819052604080822085850390559185168152908120805484929061073f908490610943565b92505081905550826001600160a01b0316846001600160a01b03167fddf252ad1be2c89b69c2b068fc378daa952ba7f163c4a11628f55a4df523b3ef8460405161078b91815260200190565b60405180910390a361036f565b600060208083528351808285015260005b818110156107c5578581018301518582016040015282016107a9565b818111156107d7576000604083870101525b50601f01601f1916929092016040019392505050565b80356001600160a01b038116811461080457600080fd5b919050565b6000806040838503121561081c57600080fd5b610825836107ed565b946020939093013593505050565b60008060006060848603121561084857600080fd5b610851846107ed565b925061085f602085016107ed565b9150604084013590509250925092565b60006020828403121561088157600080fd5b61088a826107ed565b9392505050565b6000806000606084860312156108a657600080fd5b833592506108b6602085016107ed565b9150604084013580151581146108cb57600080fd5b809150509250925092565b600080604083850312156108e957600080fd5b6108f2836107ed565b9150610900602084016107ed565b90509250929050565b600181811c9082168061091d57607f821691505b60208210810361093d57634e487b7160e01b600052602260045260246000fd5b50919050565b6000821982111561096457634e487b7160e01b600052601160045260246000fd5b50019056fea26469706673582212208c24e8fd278e7c42427f1f4ff2f141102b295aa03dd293f6d9d2793d656e774264736f6c634300080d00334552433732313a207472616e7366657220746f206e6f6e204552433732315265",
  "immutableReferences": {},
  "source": "// SPDX-License-Identifier: MIT\npragma solidity >=0.4.21 <8.13.0;\n\nimport \"@openzeppelin/contracts/token/ERC721/ERC721.sol\";\nimport \"@openzeppelin/contracts/token/ERC721/extensions/ERC721URIStorage.sol\";\nimport \"@openzeppelin/contracts/utils/Counters.sol\";\nimport \"@openzeppelin/contracts/utils/Strings.sol\";\nimport \"./HeroToken.sol\";\n\ncontract Hero is ERC721URIStorage {\n    using Counters for Counters.Counter;\n    Counters.Counter private _tokenIds;\n\n    address contractOwner;\n\n    enum Rarity {\n        Common,\n        UnCommon,\n        Rare,\n        Legendary\n    }\n\n    struct Hero {\n        uint256 level;\n        bool isOnSale;\n        uint256 exp;\n        uint256 id;\n        uint256 rarity;\n        uint16 strength;\n        uint16 luck;\n        uint16 defense;\n        uint16 health;\n        uint256 price;\n    }\n\n    struct User {\n        address player;\n        uint256 energy;\n        uint256 limit;\n    }\n\n    Hero[] public heroes;\n    User[] users;\n    HeroToken heroToken;\n    mapping(address => uint256[]) heroesByOwner;\n    mapping(uint256 => address) public ownerByHero;\n    mapping(uint256 => uint256) indexOfHero;\n\n    constructor() ERC721(\"ScribbleHero\", \"SBH\") {\n        heroToken = new HeroToken();\n        contractOwner = msg.sender;\n        // for (uint256 i = 0; 0 < 5; i++) {\n        //     uint256 random = block.timestamp % 4;\n        //     uint256 rarity;\n        //     if (random == 0) {\n        //         rarity = uint256(Rarity.Common);\n        //     } else if (random == 1) {\n        //         rarity = uint256(Rarity.UnCommon);\n        //     } else if (random == 2) {\n        //         rarity = uint256(Rarity.Rare);\n        //     } else {\n        //         rarity = uint256(Rarity.Legendary);\n        //     }\n        //     // _safeMint(msg.sender, i);\n        //     Hero memory newHero = Hero({\n        //         level: 1,\n        //         exp: 15,\n        //         id: i + 1,\n        //         rarity: rarity,\n        //         strength: uint16(\n        //             (uint256(\n        //                 keccak256(\n        //                     abi.encodePacked(\n        //                         block.difficulty,\n        //                         block.timestamp,\n        //                         uint256(1 + i)\n        //                     )\n        //                 )\n        //             ) % 10) + 1\n        //         ),\n        //         luck: uint16(\n        //             (uint256(\n        //                 keccak256(\n        //                     abi.encodePacked(\n        //                         block.difficulty,\n        //                         block.timestamp,\n        //                         uint256(2 + i)\n        //                     )\n        //                 )\n        //             ) % 10) + 1\n        //         ),\n        //         defense: uint16(\n        //             (uint256(\n        //                 keccak256(\n        //                     abi.encodePacked(\n        //                         block.difficulty,\n        //                         block.timestamp,\n        //                         uint256(3 + i)\n        //                     )\n        //                 )\n        //             ) % 10) + 1\n        //         ),\n        //         health: uint16(\n        //             (uint256(\n        //                 keccak256(\n        //                     abi.encodePacked(\n        //                         block.difficulty,\n        //                         block.timestamp,\n        //                         uint256(4 + i)\n        //                     )\n        //                 )\n        //             ) % 10) + 1\n        //         )\n        //     });\n        mintFromParents();\n        // indexOfHero[_tokenIds.current()] = heroes.length - 1;\n        mintFromParents();\n        // indexOfHero[_tokenIds.current()] = heroes.length - 1;\n        // heroes.push(newHero);\n        // }\n    }\n\n    function getHeroes() public view returns (Hero[] memory) {\n        return heroes;\n    }\n\n    function random(uint256 index) private view returns (uint256) {\n        return\n            uint256(\n                keccak256(\n                    abi.encodePacked(block.difficulty, block.timestamp, index)\n                )\n            );\n    }\n    \n     function buyHero(address from, address to,uint256 tokenId, bytes memory _data) public{\n        address owner = ownerOf(tokenId);\n        if(owner == contractOwner){\n            _approve(to, tokenId);\n        }\n        _safeTransfer(from, to, tokenId, _data);\n        uint256 index = indexOfHero[tokenId];\n        heroes[index].isOnSale = false;\n    }\n\n    function sellHero(uint256 id) public {\n        uint256 index = indexOfHero[id];\n        heroes[index].isOnSale = true;\n    }\n\n    function getOwnedHeroes() public view returns (Hero[] memory) {\n        uint256[] memory indexes = heroesByOwner[msg.sender];\n        Hero[] memory ownedHeroes;\n        for (uint256 i = 0; i < indexes.length; i++) {\n            ownedHeroes[i] = heroes[indexes[i]];\n        }\n        return ownedHeroes;\n    }\n\n    function levelUp(uint256 heroIndex) public {\n        Hero memory hero = heroes[heroIndex];\n        require(hero.exp >= hero.level * 5);\n        hero.exp -= hero.level * 5;\n        hero.level += 1;\n        heroes[heroIndex] = hero;\n    }\n\n    function _recoverEnegry() private {\n        for (uint256 i = 0; i < users.length; i++) {\n            users[i].energy += 1;\n        }\n    }\n\n    function battleResult(uint256 ownHero, uint256 enemy) public {\n        uint256 myInd = indexOfHero[ownHero];\n        uint256 enemyInd = indexOfHero[enemy];\n        Hero memory myHero = heroes[myInd];\n        Hero memory enemyHero = heroes[enemyInd];\n        uint256 myTol = myHero.defense + myHero.strength + myHero.luck;\n        uint256 enTol = enemyHero.defense + enemyHero.strength + enemyHero.luck;\n        if(myTol > enTol){\n            heroToken.sendTokeToWinner(100, msg.sender, true);\n        }\n    }\n\n    function mintFromParents() public {\n        _tokenIds.increment();\n        uint256 newTokenId = _tokenIds.current();\n        heroes.push(Hero(1, false, 0, newTokenId, 1, 6, 5, 8, 6, 100));\n        indexOfHero[heroes.length - 1] = newTokenId;\n        _safeMint(msg.sender, newTokenId);\n        _setTokenURI(\n            newTokenId,\n            string(\n                abi.encodePacked(\n                    \"https://gateway.pinata.cloud/ipfs/QmTedmUHpkefXEfrsSb8cwtQsMcFbyDPikGF2EBdrNE9S6/scribble-\",\n                    Strings.toString(newTokenId),\n                    \".json\"\n                )\n            )\n        );\n    }\n}\n",
  "sourcePath": "/Users/christian/block_chain_app/original_game/contracts/Hero.sol",
  "compiler": {
    "name": "solc",
    "version": "0.8.13+commit.abaa5c0e.Emscripten.clang"
  },
  "schemaVersion": "3.4.6",
  "updatedAt": "2022-05-03T12:08:20.990Z",
  "networkType": "ethereum",
  "devdoc": {
    "kind": "dev",
    "methods": {
      "approve(address,uint256)": {
        "details": "See {IERC721-approve}."
      },
      "balanceOf(address)": {
        "details": "See {IERC721-balanceOf}."
      },
      "getApproved(uint256)": {
        "details": "See {IERC721-getApproved}."
      },
      "isApprovedForAll(address,address)": {
        "details": "See {IERC721-isApprovedForAll}."
      },
      "name()": {
        "details": "See {IERC721Metadata-name}."
      },
      "ownerOf(uint256)": {
        "details": "See {IERC721-ownerOf}."
      },
      "safeTransferFrom(address,address,uint256)": {
        "details": "See {IERC721-safeTransferFrom}."
      },
      "safeTransferFrom(address,address,uint256,bytes)": {
        "details": "See {IERC721-safeTransferFrom}."
      },
      "setApprovalForAll(address,bool)": {
        "details": "See {IERC721-setApprovalForAll}."
      },
      "supportsInterface(bytes4)": {
        "details": "See {IERC165-supportsInterface}."
      },
      "symbol()": {
        "details": "See {IERC721Metadata-symbol}."
      },
      "tokenURI(uint256)": {
        "details": "See {IERC721Metadata-tokenURI}."
      },
      "transferFrom(address,address,uint256)": {
        "details": "See {IERC721-transferFrom}."
      }
    },
    "version": 1
  },
  "userdoc": {
    "kind": "user",
    "methods": {},
    "version": 1
  }
}